{
  "_format": "hh-sol-artifact-1",
  "contractName": "AMA",
  "sourceName": "contracts/AMA.sol",
  "abi": [
    {
      "inputs": [
        {
          "internalType": "address",
          "name": "_verifier",
          "type": "address"
        }
      ],
      "stateMutability": "nonpayable",
      "type": "constructor"
    },
    {
      "anonymous": false,
      "inputs": [
        {
          "indexed": true,
          "internalType": "uint256",
          "name": "sessionId",
          "type": "uint256"
        }
      ],
      "name": "AmaSessionCreated",
      "type": "event"
    },
    {
      "anonymous": false,
      "inputs": [
        {
          "indexed": false,
          "internalType": "uint256",
          "name": "sessionId",
          "type": "uint256"
        },
        {
          "indexed": false,
          "internalType": "uint256",
          "name": "statusId",
          "type": "uint256"
        }
      ],
      "name": "AmaSessionStatusChanged",
      "type": "event"
    },
    {
      "anonymous": false,
      "inputs": [
        {
          "indexed": true,
          "internalType": "uint256",
          "name": "groupId",
          "type": "uint256"
        },
        {
          "indexed": false,
          "internalType": "uint8",
          "name": "depth",
          "type": "uint8"
        },
        {
          "indexed": false,
          "internalType": "uint256",
          "name": "zeroValue",
          "type": "uint256"
        }
      ],
      "name": "GroupCreated",
      "type": "event"
    },
    {
      "anonymous": false,
      "inputs": [
        {
          "indexed": true,
          "internalType": "uint256",
          "name": "groupId",
          "type": "uint256"
        },
        {
          "indexed": false,
          "internalType": "uint256",
          "name": "identityCommitment",
          "type": "uint256"
        },
        {
          "indexed": false,
          "internalType": "uint256",
          "name": "root",
          "type": "uint256"
        }
      ],
      "name": "MemberAdded",
      "type": "event"
    },
    {
      "anonymous": false,
      "inputs": [
        {
          "indexed": true,
          "internalType": "uint256",
          "name": "groupId",
          "type": "uint256"
        },
        {
          "indexed": false,
          "internalType": "uint256",
          "name": "identityCommitment",
          "type": "uint256"
        },
        {
          "indexed": false,
          "internalType": "uint256",
          "name": "root",
          "type": "uint256"
        }
      ],
      "name": "MemberRemoved",
      "type": "event"
    },
    {
      "anonymous": false,
      "inputs": [
        {
          "indexed": false,
          "internalType": "uint256",
          "name": "sessionId",
          "type": "uint256"
        },
        {
          "indexed": false,
          "internalType": "uint256",
          "name": "questionId",
          "type": "uint256"
        },
        {
          "indexed": false,
          "internalType": "bytes32",
          "name": "signal",
          "type": "bytes32"
        }
      ],
      "name": "NewQuestion",
      "type": "event"
    },
    {
      "anonymous": false,
      "inputs": [
        {
          "indexed": false,
          "internalType": "uint256",
          "name": "nullifierHash",
          "type": "uint256"
        }
      ],
      "name": "NullifierHashAdded",
      "type": "event"
    },
    {
      "anonymous": false,
      "inputs": [
        {
          "indexed": true,
          "internalType": "address",
          "name": "previousOwner",
          "type": "address"
        },
        {
          "indexed": true,
          "internalType": "address",
          "name": "newOwner",
          "type": "address"
        }
      ],
      "name": "OwnershipTransferred",
      "type": "event"
    },
    {
      "anonymous": false,
      "inputs": [
        {
          "indexed": false,
          "internalType": "uint256",
          "name": "sessionId",
          "type": "uint256"
        },
        {
          "indexed": false,
          "internalType": "uint256",
          "name": "questionId",
          "type": "uint256"
        },
        {
          "indexed": false,
          "internalType": "uint256",
          "name": "votes",
          "type": "uint256"
        }
      ],
      "name": "QuestionVoted",
      "type": "event"
    },
    {
      "anonymous": false,
      "inputs": [
        {
          "indexed": true,
          "internalType": "uint256",
          "name": "sessionId",
          "type": "uint256"
        },
        {
          "indexed": false,
          "internalType": "uint256",
          "name": "identityCommitment",
          "type": "uint256"
        }
      ],
      "name": "UserJoinedAmaSession",
      "type": "event"
    },
    {
      "anonymous": false,
      "inputs": [
        {
          "indexed": true,
          "internalType": "uint256",
          "name": "sessionId",
          "type": "uint256"
        },
        {
          "indexed": false,
          "internalType": "uint256",
          "name": "identityCommitment",
          "type": "uint256"
        }
      ],
      "name": "UserLeftAmaSession",
      "type": "event"
    },
    {
      "inputs": [
        {
          "internalType": "uint256",
          "name": "",
          "type": "uint256"
        },
        {
          "internalType": "uint256",
          "name": "",
          "type": "uint256"
        }
      ],
      "name": "amaSessionIdentityCommitments",
      "outputs": [
        {
          "internalType": "uint256",
          "name": "",
          "type": "uint256"
        }
      ],
      "stateMutability": "view",
      "type": "function"
    },
    {
      "inputs": [
        {
          "internalType": "bytes32",
          "name": "",
          "type": "bytes32"
        }
      ],
      "name": "amaSessionQuestion",
      "outputs": [
        {
          "internalType": "uint256",
          "name": "questionId",
          "type": "uint256"
        },
        {
          "internalType": "uint256",
          "name": "votes",
          "type": "uint256"
        }
      ],
      "stateMutability": "view",
      "type": "function"
    },
    {
      "inputs": [
        {
          "internalType": "uint256",
          "name": "",
          "type": "uint256"
        },
        {
          "internalType": "uint256",
          "name": "",
          "type": "uint256"
        }
      ],
      "name": "amaSessionQuestionList",
      "outputs": [
        {
          "internalType": "uint256",
          "name": "",
          "type": "uint256"
        }
      ],
      "stateMutability": "view",
      "type": "function"
    },
    {
      "inputs": [
        {
          "internalType": "uint256",
          "name": "",
          "type": "uint256"
        }
      ],
      "name": "amaSessions",
      "outputs": [
        {
          "internalType": "uint256",
          "name": "sessionId",
          "type": "uint256"
        },
        {
          "internalType": "address",
          "name": "owner",
          "type": "address"
        },
        {
          "internalType": "uint256",
          "name": "state",
          "type": "uint256"
        }
      ],
      "stateMutability": "view",
      "type": "function"
    },
    {
      "inputs": [
        {
          "internalType": "uint256",
          "name": "sessionId",
          "type": "uint256"
        }
      ],
      "name": "createAmaSession",
      "outputs": [],
      "stateMutability": "nonpayable",
      "type": "function"
    },
    {
      "inputs": [
        {
          "internalType": "uint256",
          "name": "sessionId",
          "type": "uint256"
        }
      ],
      "name": "endAmaSession",
      "outputs": [],
      "stateMutability": "nonpayable",
      "type": "function"
    },
    {
      "inputs": [
        {
          "internalType": "uint256",
          "name": "groupId",
          "type": "uint256"
        }
      ],
      "name": "getDepth",
      "outputs": [
        {
          "internalType": "uint8",
          "name": "",
          "type": "uint8"
        }
      ],
      "stateMutability": "view",
      "type": "function"
    },
    {
      "inputs": [
        {
          "internalType": "uint256",
          "name": "sessionId",
          "type": "uint256"
        }
      ],
      "name": "getIdentityCommitments",
      "outputs": [
        {
          "internalType": "uint256[]",
          "name": "",
          "type": "uint256[]"
        }
      ],
      "stateMutability": "view",
      "type": "function"
    },
    {
      "inputs": [
        {
          "internalType": "uint256",
          "name": "groupId",
          "type": "uint256"
        }
      ],
      "name": "getNumberOfLeaves",
      "outputs": [
        {
          "internalType": "uint256",
          "name": "",
          "type": "uint256"
        }
      ],
      "stateMutability": "view",
      "type": "function"
    },
    {
      "inputs": [
        {
          "internalType": "uint256",
          "name": "groupId",
          "type": "uint256"
        }
      ],
      "name": "getRoot",
      "outputs": [
        {
          "internalType": "uint256",
          "name": "",
          "type": "uint256"
        }
      ],
      "stateMutability": "view",
      "type": "function"
    },
    {
      "inputs": [
        {
          "internalType": "uint256",
          "name": "sessionId",
          "type": "uint256"
        },
        {
          "internalType": "uint256",
          "name": "identityCommitment",
          "type": "uint256"
        }
      ],
      "name": "joinAmaSession",
      "outputs": [],
      "stateMutability": "nonpayable",
      "type": "function"
    },
    {
      "inputs": [],
      "name": "owner",
      "outputs": [
        {
          "internalType": "address",
          "name": "",
          "type": "address"
        }
      ],
      "stateMutability": "view",
      "type": "function"
    },
    {
      "inputs": [
        {
          "internalType": "uint256",
          "name": "sessionId",
          "type": "uint256"
        }
      ],
      "name": "pauseAmaSession",
      "outputs": [],
      "stateMutability": "nonpayable",
      "type": "function"
    },
    {
      "inputs": [
        {
          "internalType": "uint256",
          "name": "sessionId",
          "type": "uint256"
        },
        {
          "internalType": "uint256",
          "name": "questionId",
          "type": "uint256"
        },
        {
          "internalType": "bytes32",
          "name": "signal",
          "type": "bytes32"
        },
        {
          "internalType": "uint256",
          "name": "root",
          "type": "uint256"
        },
        {
          "internalType": "uint256",
          "name": "nullifierHash",
          "type": "uint256"
        },
        {
          "internalType": "uint256",
          "name": "externalNullifier",
          "type": "uint256"
        },
        {
          "internalType": "uint256[8]",
          "name": "proof",
          "type": "uint256[8]"
        }
      ],
      "name": "postQuestion",
      "outputs": [],
      "stateMutability": "nonpayable",
      "type": "function"
    },
    {
      "inputs": [],
      "name": "renounceOwnership",
      "outputs": [],
      "stateMutability": "nonpayable",
      "type": "function"
    },
    {
      "inputs": [
        {
          "internalType": "uint256",
          "name": "sessionId",
          "type": "uint256"
        }
      ],
      "name": "resumeAmaSession",
      "outputs": [],
      "stateMutability": "nonpayable",
      "type": "function"
    },
    {
      "inputs": [
        {
          "internalType": "uint256",
          "name": "sessionId",
          "type": "uint256"
        }
      ],
      "name": "startAmaSession",
      "outputs": [],
      "stateMutability": "nonpayable",
      "type": "function"
    },
    {
      "inputs": [
        {
          "internalType": "address",
          "name": "newOwner",
          "type": "address"
        }
      ],
      "name": "transferOwnership",
      "outputs": [],
      "stateMutability": "nonpayable",
      "type": "function"
    },
    {
      "inputs": [],
      "name": "verifier",
      "outputs": [
        {
          "internalType": "contract IVerifier",
          "name": "",
          "type": "address"
        }
      ],
      "stateMutability": "view",
      "type": "function"
    },
    {
      "inputs": [
        {
          "internalType": "uint256",
          "name": "sessionId",
          "type": "uint256"
        },
        {
          "internalType": "uint256",
          "name": "questionId",
          "type": "uint256"
        },
        {
          "internalType": "bytes32",
          "name": "signal",
          "type": "bytes32"
        },
        {
          "internalType": "uint256",
          "name": "root",
          "type": "uint256"
        },
        {
          "internalType": "uint256",
          "name": "nullifierHash",
          "type": "uint256"
        },
        {
          "internalType": "uint256",
          "name": "externalNullifier",
          "type": "uint256"
        },
        {
          "internalType": "uint256[8]",
          "name": "proof",
          "type": "uint256[8]"
        }
      ],
      "name": "voteQuestion",
      "outputs": [
        {
          "internalType": "uint256",
          "name": "",
          "type": "uint256"
        },
        {
          "internalType": "uint256",
          "name": "",
          "type": "uint256"
        }
      ],
      "stateMutability": "nonpayable",
      "type": "function"
    }
  ],
  "bytecode": "0x60806040523480156200001157600080fd5b50604051620030cb380380620030cb833981810160405281019062000037919062000184565b620000576200004b6200009f60201b60201c565b620000a760201b60201c565b80600760006101000a81548173ffffffffffffffffffffffffffffffffffffffff021916908373ffffffffffffffffffffffffffffffffffffffff16021790555050620001fe565b600033905090565b6000600260009054906101000a900473ffffffffffffffffffffffffffffffffffffffff16905081600260006101000a81548173ffffffffffffffffffffffffffffffffffffffff021916908373ffffffffffffffffffffffffffffffffffffffff1602179055508173ffffffffffffffffffffffffffffffffffffffff168173ffffffffffffffffffffffffffffffffffffffff167f8be0079c531659141344cd1fd0a4f28419497f9722a3daafe3b4186f6b6457e060405160405180910390a35050565b6000815190506200017e81620001e4565b92915050565b6000602082840312156200019757600080fd5b6000620001a7848285016200016d565b91505092915050565b6000620001bd82620001c4565b9050919050565b600073ffffffffffffffffffffffffffffffffffffffff82169050919050565b620001ef81620001b0565b8114620001fb57600080fd5b50565b612ebd806200020e6000396000f3fe608060405234801561001057600080fd5b506004361061012c5760003560e01c806375e618c9116100ad578063bb4446af11610071578063bb4446af14610354578063bc466a0914610386578063e2a1e285146103a2578063f2fde38b146103be578063f6bb7354146103da5761012c565b806375e618c91461028a5780638da5cb5b146102ba5780639b24b3b0146102d8578063ad98ac8014610308578063b9c78c2b146103245761012c565b806369f819df116100f457806369f819df146101e85780636f38db4f14610218578063715018a6146102345780637178fbfd1461023e578063758dd1951461026e5761012c565b806308cc30d8146101315780630950371f146101625780631582fab1146101925780632b7ac3f3146101ae578063542a4b96146101cc575b600080fd5b61014b60048036038101906101469190611f11565b61040b565b604051610159929190612778565b60405180910390f35b61017c60048036038101906101779190611eac565b61065b565b60405161018991906124c9565b60405180910390f35b6101ac60048036038101906101a79190611eac565b6106c6565b005b6101b661086c565b6040516101c391906124eb565b60405180910390f35b6101e660048036038101906101e19190611ed5565b610892565b005b61020260048036038101906101fd9190611ed5565b610a35565b60405161020f9190612726565b60405180910390f35b610232600480360381019061022d9190611eac565b610a66565b005b61023c610c66565b005b61025860048036038101906102539190611ed5565b610cee565b6040516102659190612726565b60405180910390f35b61028860048036038101906102839190611eac565b610d1f565b005b6102a4600480360381019061029f9190611eac565b610f1f565b6040516102b1919061280f565b60405180910390f35b6102c2610f4c565b6040516102cf9190612467565b60405180910390f35b6102f260048036038101906102ed9190611eac565b610f76565b6040516102ff9190612726565b60405180910390f35b610322600480360381019061031d9190611eac565b610f96565b005b61033e60048036038101906103399190611eac565b611196565b60405161034b9190612726565b60405180910390f35b61036e60048036038101906103699190611eac565b6111b6565b60405161037d93929190612741565b60405180910390f35b6103a0600480360381019061039b9190611eac565b611200565b005b6103bc60048036038101906103b79190611f11565b6112e0565b005b6103d860048036038101906103d39190611e31565b61156b565b005b6103f460048036038101906103ef9190611e83565b611663565b604051610402929190612778565b60405180910390f35b60008088600073ffffffffffffffffffffffffffffffffffffffff166003600083815260200190815260200160002060010160009054906101000a900473ffffffffffffffffffffffffffffffffffffffff1673ffffffffffffffffffffffffffffffffffffffff1614156104b5576040517f08c379a00000000000000000000000000000000000000000000000000000000081526004016104ac90612646565b60405180910390fd5b896003806000838152602001908152602001600020600201541461050e576040517f08c379a000000000000000000000000000000000000000000000000000000000815260040161050590612586565b60405180910390fd5b61053e8989898989600760009054906101000a900473ffffffffffffffffffffffffffffffffffffffff16611687565b61057d576040517f08c379a0000000000000000000000000000000000000000000000000000000008152600401610574906125a6565b60405180910390fd5b60008a604051602001610590919061244c565b60405160208183030381529060405280519060200120905060016004600083815260200190815260200160002060010160008282546105cf919061292f565b925050819055506105df88611a06565b7fe032b0171b8688390474f14cb113a546cf69cd6385ba4a5ae43550afe994e0cc8c8c6004600085815260200190815260200160002060010154604051610628939291906127d8565b60405180910390a18a60046000838152602001908152602001600020600101549450945050505097509795505050505050565b6060600560008381526020019081526020016000208054806020026020016040519081016040528092919081815260200182805480156106ba57602002820191906000526020600020905b8154815260200190600101908083116106a6575b50505050509050919050565b80600073ffffffffffffffffffffffffffffffffffffffff166003600083815260200190815260200160002060010160009054906101000a900473ffffffffffffffffffffffffffffffffffffffff1673ffffffffffffffffffffffffffffffffffffffff16141561076d576040517f08c379a000000000000000000000000000000000000000000000000000000000815260040161076490612646565b60405180910390fd5b813373ffffffffffffffffffffffffffffffffffffffff166003600083815260200190815260200160002060010160009054906101000a900473ffffffffffffffffffffffffffffffffffffffff1673ffffffffffffffffffffffffffffffffffffffff1614610812576040517f08c379a000000000000000000000000000000000000000000000000000000000815260040161080990612666565b60405180910390fd5b600460036000858152602001908152602001600020600201819055507e933d644a694d122358be17a9d7642ba5dfaae41af75919aab4d6e727915afa83600460405161085f929190612778565b60405180910390a1505050565b600760009054906101000a900473ffffffffffffffffffffffffffffffffffffffff1681565b81600073ffffffffffffffffffffffffffffffffffffffff166003600083815260200190815260200160002060010160009054906101000a900473ffffffffffffffffffffffffffffffffffffffff1673ffffffffffffffffffffffffffffffffffffffff161415610939576040517f08c379a000000000000000000000000000000000000000000000000000000000815260040161093090612646565b60405180910390fd5b826002600360008381526020019081526020016000206002015414806109745750600380600083815260200190815260200160002060020154145b6109b3576040517f08c379a00000000000000000000000000000000000000000000000000000000081526004016109aa906125c6565b60405180910390fd5b6109bd8484611a34565b60056000858152602001908152602001600020839080600181540180825580915050600190039060005260206000200160009091909190915055837f2855066e76771b6dced90a7b0015d1bd9a51283bfa652fbaf44214c1d545f8d084604051610a279190612726565b60405180910390a250505050565b60056020528160005260406000208181548110610a5157600080fd5b90600052602060002001600091509150505481565b80600073ffffffffffffffffffffffffffffffffffffffff166003600083815260200190815260200160002060010160009054906101000a900473ffffffffffffffffffffffffffffffffffffffff1673ffffffffffffffffffffffffffffffffffffffff161415610b0d576040517f08c379a0000000000000000000000000000000000000000000000000000000008152600401610b0490612646565b60405180910390fd5b813373ffffffffffffffffffffffffffffffffffffffff166003600083815260200190815260200160002060010160009054906101000a900473ffffffffffffffffffffffffffffffffffffffff1673ffffffffffffffffffffffffffffffffffffffff1614610bb2576040517f08c379a0000000000000000000000000000000000000000000000000000000008152600401610ba990612666565b60405180910390fd5b826001600360008381526020019081526020016000206002015414610c0c576040517f08c379a0000000000000000000000000000000000000000000000000000000008152600401610c03906125e6565b60405180910390fd5b6003806000868152602001908152602001600020600201819055507e933d644a694d122358be17a9d7642ba5dfaae41af75919aab4d6e727915afa846003604051610c58929190612778565b60405180910390a150505050565b610c6e611b4c565b73ffffffffffffffffffffffffffffffffffffffff16610c8c610f4c565b73ffffffffffffffffffffffffffffffffffffffff1614610ce2576040517f08c379a0000000000000000000000000000000000000000000000000000000008152600401610cd990612626565b60405180910390fd5b610cec6000611b54565b565b60066020528160005260406000208181548110610d0a57600080fd5b90600052602060002001600091509150505481565b80600073ffffffffffffffffffffffffffffffffffffffff166003600083815260200190815260200160002060010160009054906101000a900473ffffffffffffffffffffffffffffffffffffffff1673ffffffffffffffffffffffffffffffffffffffff161415610dc6576040517f08c379a0000000000000000000000000000000000000000000000000000000008152600401610dbd90612646565b60405180910390fd5b813373ffffffffffffffffffffffffffffffffffffffff166003600083815260200190815260200160002060010160009054906101000a900473ffffffffffffffffffffffffffffffffffffffff1673ffffffffffffffffffffffffffffffffffffffff1614610e6b576040517f08c379a0000000000000000000000000000000000000000000000000000000008152600401610e6290612666565b60405180910390fd5b826002600360008381526020019081526020016000206002015414610ec5576040517f08c379a0000000000000000000000000000000000000000000000000000000008152600401610ebc90612686565b60405180910390fd5b6003806000868152602001908152602001600020600201819055507e933d644a694d122358be17a9d7642ba5dfaae41af75919aab4d6e727915afa846003604051610f11929190612778565b60405180910390a150505050565b60006001600083815260200190815260200160002060000160009054906101000a900460ff169050919050565b6000600260009054906101000a900473ffffffffffffffffffffffffffffffffffffffff16905090565b600060016000838152602001908152602001600020600101549050919050565b80600073ffffffffffffffffffffffffffffffffffffffff166003600083815260200190815260200160002060010160009054906101000a900473ffffffffffffffffffffffffffffffffffffffff1673ffffffffffffffffffffffffffffffffffffffff16141561103d576040517f08c379a000000000000000000000000000000000000000000000000000000000815260040161103490612646565b60405180910390fd5b813373ffffffffffffffffffffffffffffffffffffffff166003600083815260200190815260200160002060010160009054906101000a900473ffffffffffffffffffffffffffffffffffffffff1673ffffffffffffffffffffffffffffffffffffffff16146110e2576040517f08c379a00000000000000000000000000000000000000000000000000000000081526004016110d990612666565b60405180910390fd5b826003806000838152602001908152602001600020600201541461113b576040517f08c379a000000000000000000000000000000000000000000000000000000000815260040161113290612586565b60405180910390fd5b600260036000868152602001908152602001600020600201819055507e933d644a694d122358be17a9d7642ba5dfaae41af75919aab4d6e727915afa846002604051611188929190612778565b60405180910390a150505050565b600060016000838152602001908152602001600020600201549050919050565b60036020528060005260406000206000915090508060000154908060010160009054906101000a900473ffffffffffffffffffffffffffffffffffffffff16908060020154905083565b61120d8160146000611c1a565b60405180606001604052808281526020013373ffffffffffffffffffffffffffffffffffffffff1681526020016001815250600360008381526020019081526020016000206000820151816000015560208201518160010160006101000a81548173ffffffffffffffffffffffffffffffffffffffff021916908373ffffffffffffffffffffffffffffffffffffffff16021790555060408201518160020155905050807f80eb16b9e18c05f6c250357758c0f8972e8b34d8f739057ce9d1ba145560ac0c60405160405180910390a250565b86600073ffffffffffffffffffffffffffffffffffffffff166003600083815260200190815260200160002060010160009054906101000a900473ffffffffffffffffffffffffffffffffffffffff1673ffffffffffffffffffffffffffffffffffffffff161415611387576040517f08c379a000000000000000000000000000000000000000000000000000000000815260040161137e90612646565b60405180910390fd5b87600380600083815260200190815260200160002060020154146113e0576040517f08c379a00000000000000000000000000000000000000000000000000000000081526004016113d790612586565b60405180910390fd5b88606460066000838152602001908152602001600020805490501061143a576040517f08c379a000000000000000000000000000000000000000000000000000000000815260040161143190612526565b60405180910390fd5b61146a8888888888600760009054906101000a900473ffffffffffffffffffffffffffffffffffffffff16611687565b6114a9576040517f08c379a00000000000000000000000000000000000000000000000000000000081526004016114a0906125a6565b60405180910390fd5b6000896040516020016114bc919061244c565b604051602081830303815290604052805190602001209050600060405180604001604052808c8152602001600081525090508060046000848152602001908152602001600020600082015181600001556020820151816001015590505061152288611a06565b7f37e674dde5bcccda4110ec8abe4daaf45c9c378d8185aec68673556e042e1e9f8c8c8c604051611555939291906127a1565b60405180910390a1505050505050505050505050565b611573611b4c565b73ffffffffffffffffffffffffffffffffffffffff16611591610f4c565b73ffffffffffffffffffffffffffffffffffffffff16146115e7576040517f08c379a00000000000000000000000000000000000000000000000000000000081526004016115de90612626565b60405180910390fd5b600073ffffffffffffffffffffffffffffffffffffffff168173ffffffffffffffffffffffffffffffffffffffff161415611657576040517f08c379a000000000000000000000000000000000000000000000000000000000815260040161164e90612546565b60405180910390fd5b61166081611b54565b50565b60046020528060005260406000206000915090508060000154908060010154905082565b600080600086815260200190815260200160002060009054906101000a900460ff16156116e9576040517f08c379a00000000000000000000000000000000000000000000000000000000081526004016116e090612506565b60405180910390fd5b60006116f488611d88565b90508273ffffffffffffffffffffffffffffffffffffffff16635fe8c13b604051806040016040528087600060088110611757577f4e487b7100000000000000000000000000000000000000000000000000000000600052603260045260246000fd5b602002013581526020018760016008811061179b577f4e487b7100000000000000000000000000000000000000000000000000000000600052603260045260246000fd5b6020020135815250604051806040016040528060405180604001604052808a6002600881106117f3577f4e487b7100000000000000000000000000000000000000000000000000000000600052603260045260246000fd5b602002013581526020018a600360088110611837577f4e487b7100000000000000000000000000000000000000000000000000000000600052603260045260246000fd5b6020020135815250815260200160405180604001604052808a600460088110611889577f4e487b7100000000000000000000000000000000000000000000000000000000600052603260045260246000fd5b602002013581526020018a6005600881106118cd577f4e487b7100000000000000000000000000000000000000000000000000000000600052603260045260246000fd5b602002013581525081525060405180604001604052808960066008811061191d577f4e487b7100000000000000000000000000000000000000000000000000000000600052603260045260246000fd5b6020020135815260200189600760088110611961577f4e487b7100000000000000000000000000000000000000000000000000000000600052603260045260246000fd5b602002013581525060405180608001604052808d81526020018c81526020018781526020018b8152506040518563ffffffff1660e01b81526004016119a99493929190612482565b60206040518083038186803b1580156119c157600080fd5b505afa1580156119d5573d6000803e3d6000fd5b505050506040513d601f19601f820116820180604052508101906119f99190611e5a565b9150509695505050505050565b600160008083815260200190815260200160002060006101000a81548160ff02191690831515021790555050565b6000611a3f83610f1f565b60ff161415611a83576040517f08c379a0000000000000000000000000000000000000000000000000000000008152600401611a7a90612606565b60405180910390fd5b6001600083815260200190815260200160002073__$4c0484323457fe1a856f46a4759b553fe4$__63168703fa9091836040518363ffffffff1660e01b8152600401611ad09291906126c6565b60006040518083038186803b158015611ae857600080fd5b505af4158015611afc573d6000803e3d6000fd5b505050506000611b0b83610f76565b9050827f03fd27265b7dd1f55558bedc22a58fa3b10afb1be776e614bd5a7ba7b94994068383604051611b3f929190612778565b60405180910390a2505050565b600033905090565b6000600260009054906101000a900473ffffffffffffffffffffffffffffffffffffffff16905081600260006101000a81548173ffffffffffffffffffffffffffffffffffffffff021916908373ffffffffffffffffffffffffffffffffffffffff1602179055508173ffffffffffffffffffffffffffffffffffffffff168173ffffffffffffffffffffffffffffffffffffffff167f8be0079c531659141344cd1fd0a4f28419497f9722a3daafe3b4186f6b6457e060405160405180910390a35050565b7f30644e72e131a029b85045b68181585d2833e84879b9709143e1f593f00000018310611c7c576040517f08c379a0000000000000000000000000000000000000000000000000000000008152600401611c73906126a6565b60405180910390fd5b6000611c8784610f1f565b60ff1614611cca576040517f08c379a0000000000000000000000000000000000000000000000000000000008152600401611cc190612566565b60405180910390fd5b6001600084815260200190815260200160002073__$4c0484323457fe1a856f46a4759b553fe4$__63b4bdd117909184846040518463ffffffff1660e01b8152600401611d19939291906126ef565b60006040518083038186803b158015611d3157600080fd5b505af4158015611d45573d6000803e3d6000fd5b50505050827fc3082aa494e9088c2c9f0fb62a0b6bd46e6699acb94cfba35be29b95a93f68c88383604051611d7b92919061282a565b60405180910390a2505050565b6000600882604051602001611d9d9190612431565b6040516020818303038152906040528051906020012060001c901c9050919050565b600081359050611dce81612e2b565b92915050565b600081905082602060080282011115611dec57600080fd5b92915050565b600081519050611e0181612e42565b92915050565b600081359050611e1681612e59565b92915050565b600081359050611e2b81612e70565b92915050565b600060208284031215611e4357600080fd5b6000611e5184828501611dbf565b91505092915050565b600060208284031215611e6c57600080fd5b6000611e7a84828501611df2565b91505092915050565b600060208284031215611e9557600080fd5b6000611ea384828501611e07565b91505092915050565b600060208284031215611ebe57600080fd5b6000611ecc84828501611e1c565b91505092915050565b60008060408385031215611ee857600080fd5b6000611ef685828601611e1c565b9250506020611f0785828601611e1c565b9150509250929050565b60008060008060008060006101c0888a031215611f2d57600080fd5b6000611f3b8a828b01611e1c565b9750506020611f4c8a828b01611e1c565b9650506040611f5d8a828b01611e07565b9550506060611f6e8a828b01611e1c565b9450506080611f7f8a828b01611e1c565b93505060a0611f908a828b01611e1c565b92505060c0611fa18a828b01611dd4565b91505092959891949750929550565b6000611fbc8383612046565b60408301905092915050565b6000611fd483836123cf565b60208301905092915050565b611fe981612985565b82525050565b611ff881612881565b61200281846128e1565b925061200d82612853565b8060005b8381101561203e5781516120258782611fb0565b9650612030836128ad565b925050600181019050612011565b505050505050565b61204f8161288c565b61205981846128ec565b92506120648261285d565b8060005b8381101561209557815161207c8782611fc8565b9650612087836128ba565b925050600181019050612068565b505050505050565b6120a68161288c565b6120b081846128f7565b92506120bb8261285d565b8060005b838110156120ec5781516120d38782611fc8565b96506120de836128ba565b9250506001810190506120bf565b505050505050565b6120fd81612897565b6121078184612902565b925061211282612867565b8060005b8381101561214357815161212a8782611fc8565b9650612135836128c7565b925050600181019050612116565b505050505050565b6000612156826128a2565b612160818561290d565b935061216b83612871565b8060005b8381101561219c5781516121838882611fc8565b975061218e836128d4565b92505060018101905061216f565b5085935050505092915050565b6121b2816129a3565b82525050565b6121c96121c4826129a3565b612a08565b82525050565b6121d8816129e4565b82525050565b60006121eb60368361291e565b91506121f682612a4b565b604082019050919050565b600061220e60238361291e565b915061221982612a9a565b604082019050919050565b600061223160268361291e565b915061223c82612ae9565b604082019050919050565b600061225460258361291e565b915061225f82612b38565b604082019050919050565b600061227760218361291e565b915061228282612b87565b604082019050919050565b600061229a601b8361291e565b91506122a582612bd6565b602082019050919050565b60006122bd602b8361291e565b91506122c882612bff565b604082019050919050565b60006122e060298361291e565b91506122eb82612c4e565b604082019050919050565b600061230360258361291e565b915061230e82612c9d565b604082019050919050565b600061232660208361291e565b915061233182612cec565b602082019050919050565b6000612349601a8361291e565b915061235482612d15565b602082019050919050565b600061236c60298361291e565b915061237782612d3e565b604082019050919050565b600061238f60218361291e565b915061239a82612d8d565b604082019050919050565b60006123b260368361291e565b91506123bd82612ddc565b604082019050919050565b8082525050565b6123d8816129cd565b82525050565b6123e7816129cd565b82525050565b6123f6816129cd565b82525050565b61240d612408826129cd565b612a12565b82525050565b61241c816129d7565b82525050565b61242b816129d7565b82525050565b600061243d82846121b8565b60208201915081905092915050565b600061245882846123fc565b60208201915081905092915050565b600060208201905061247c6000830184611fe0565b92915050565b600061018082019050612498600083018761209d565b6124a56040830186611fef565b6124b260c083018561209d565b6124c06101008301846120f4565b95945050505050565b600060208201905081810360008301526124e3818461214b565b905092915050565b600060208201905061250060008301846121cf565b92915050565b6000602082019050818103600083015261251f816121de565b9050919050565b6000602082019050818103600083015261253f81612201565b9050919050565b6000602082019050818103600083015261255f81612224565b9050919050565b6000602082019050818103600083015261257f81612247565b9050919050565b6000602082019050818103600083015261259f8161226a565b9050919050565b600060208201905081810360008301526125bf8161228d565b9050919050565b600060208201905081810360008301526125df816122b0565b9050919050565b600060208201905081810360008301526125ff816122d3565b9050919050565b6000602082019050818103600083015261261f816122f6565b9050919050565b6000602082019050818103600083015261263f81612319565b9050919050565b6000602082019050818103600083015261265f8161233c565b9050919050565b6000602082019050818103600083015261267f8161235f565b9050919050565b6000602082019050818103600083015261269f81612382565b9050919050565b600060208201905081810360008301526126bf816123a5565b9050919050565b60006040820190506126db60008301856123c8565b6126e860208301846123ed565b9392505050565b600060608201905061270460008301866123c8565b6127116020830185612422565b61271e60408301846123ed565b949350505050565b600060208201905061273b60008301846123de565b92915050565b600060608201905061275660008301866123de565b6127636020830185611fe0565b61277060408301846123de565b949350505050565b600060408201905061278d60008301856123de565b61279a60208301846123de565b9392505050565b60006060820190506127b660008301866123de565b6127c360208301856123de565b6127d060408301846121a9565b949350505050565b60006060820190506127ed60008301866123de565b6127fa60208301856123de565b61280760408301846123de565b949350505050565b60006020820190506128246000830184612413565b92915050565b600060408201905061283f6000830185612413565b61284c60208301846123de565b9392505050565b6000819050919050565b6000819050919050565b6000819050919050565b6000819050602082019050919050565b600060029050919050565b600060029050919050565b600060049050919050565b600081519050919050565b6000602082019050919050565b6000602082019050919050565b6000602082019050919050565b6000602082019050919050565b600081905092915050565b600081905092915050565b600081905092915050565b600081905092915050565b600082825260208201905092915050565b600082825260208201905092915050565b600061293a826129cd565b9150612945836129cd565b9250827fffffffffffffffffffffffffffffffffffffffffffffffffffffffffffffffff0382111561297a57612979612a1c565b5b828201905092915050565b6000612990826129ad565b9050919050565b60008115159050919050565b6000819050919050565b600073ffffffffffffffffffffffffffffffffffffffff82169050919050565b6000819050919050565b600060ff82169050919050565b60006129ef826129f6565b9050919050565b6000612a01826129ad565b9050919050565b6000819050919050565b6000819050919050565b7f4e487b7100000000000000000000000000000000000000000000000000000000600052601160045260246000fd5b7f53656d6170686f7265436f72653a20796f752063616e6e6f742075736520746860008201527f652073616d65206e756c6c696669657220747769636500000000000000000000602082015250565b7f4d6178696d756d206e756d626572206f66207175657374696f6e7320706f737460008201527f65642e0000000000000000000000000000000000000000000000000000000000602082015250565b7f4f776e61626c653a206e6577206f776e657220697320746865207a65726f206160008201527f6464726573730000000000000000000000000000000000000000000000000000602082015250565b7f53656d6170686f726547726f7570733a2067726f757020616c7265616479206560008201527f7869737473000000000000000000000000000000000000000000000000000000602082015250565b7f414d412073657373696f6e2773207374617465206973206e6f7420416374697660008201527f6500000000000000000000000000000000000000000000000000000000000000602082015250565b7f414d413a207468652070726f6f66206973206e6f742076616c69640000000000600082015250565b7f414d412073657373696f6e2773207374617465206973206e6f7420506175736560008201527f64206f7220416374697665000000000000000000000000000000000000000000602082015250565b7f414d412073657373696f6e27732073746174652073686f756c64206265204e6f60008201527f7420537461727465640000000000000000000000000000000000000000000000602082015250565b7f53656d6170686f726547726f7570733a2067726f757020646f6573206e6f742060008201527f6578697374000000000000000000000000000000000000000000000000000000602082015250565b7f4f776e61626c653a2063616c6c6572206973206e6f7420746865206f776e6572600082015250565b7f414d412073657373696f6e20646f6573206e6f74206578697374000000000000600082015250565b7f596f7520617265206e6f7420746865206f776e6572206f66207468697320414d60008201527f412073657373696f6e0000000000000000000000000000000000000000000000602082015250565b7f414d412073657373696f6e2773207374617465206973206e6f7420506175736560008201527f6400000000000000000000000000000000000000000000000000000000000000602082015250565b7f53656d6170686f726547726f7570733a2067726f7570206964206d757374206260008201527f65203c20534e41524b5f5343414c41525f4649454c4400000000000000000000602082015250565b612e3481612985565b8114612e3f57600080fd5b50565b612e4b81612997565b8114612e5657600080fd5b50565b612e62816129a3565b8114612e6d57600080fd5b50565b612e79816129cd565b8114612e8457600080fd5b5056fea26469706673582212204bc4c4e950fea64f6c253fb0db0aec5fecd9ad8dbec62c7e4f4f0cd5370a607e64736f6c63430008040033",
  "linkReferences": {
    "@zk-kit/incremental-merkle-tree.sol/contracts/IncrementalBinaryTree.sol": {
      "IncrementalBinaryTree": [
        {
          "length": 20,
          "start": 7334
        },
        {
          "length": 20,
          "start": 7917
        }
      ]
    }
  },
  "deployedLinkReferences": {
    "@zk-kit/incremental-merkle-tree.sol/contracts/IncrementalBinaryTree.sol": {
      "IncrementalBinaryTree": [
        {
          "length": 20,
          "start": 6808
        },
        {
          "length": 20,
          "start": 7391
        }
      ]
    }
  }
}