{
  "_format": "hh-sol-artifact-1",
  "contractName": "AMA",
  "sourceName": "contracts/AMA.sol",
  "abi": [
    {
      "inputs": [
        {
          "internalType": "address",
          "name": "_verifier",
          "type": "address"
        }
      ],
      "stateMutability": "nonpayable",
      "type": "constructor"
    },
    {
      "anonymous": false,
      "inputs": [
        {
          "indexed": true,
          "internalType": "uint256",
          "name": "sessionId",
          "type": "uint256"
        }
      ],
      "name": "AmaSessionCreated",
      "type": "event"
    },
    {
      "anonymous": false,
      "inputs": [
        {
          "indexed": false,
          "internalType": "uint256",
          "name": "sessionId",
          "type": "uint256"
        },
        {
          "indexed": false,
          "internalType": "uint256",
          "name": "statusId",
          "type": "uint256"
        }
      ],
      "name": "AmaSessionStatusChanged",
      "type": "event"
    },
    {
      "anonymous": false,
      "inputs": [
        {
          "indexed": true,
          "internalType": "uint256",
          "name": "groupId",
          "type": "uint256"
        },
        {
          "indexed": false,
          "internalType": "uint8",
          "name": "depth",
          "type": "uint8"
        },
        {
          "indexed": false,
          "internalType": "uint256",
          "name": "zeroValue",
          "type": "uint256"
        }
      ],
      "name": "GroupCreated",
      "type": "event"
    },
    {
      "anonymous": false,
      "inputs": [
        {
          "indexed": true,
          "internalType": "uint256",
          "name": "groupId",
          "type": "uint256"
        },
        {
          "indexed": false,
          "internalType": "uint256",
          "name": "identityCommitment",
          "type": "uint256"
        },
        {
          "indexed": false,
          "internalType": "uint256",
          "name": "root",
          "type": "uint256"
        }
      ],
      "name": "MemberAdded",
      "type": "event"
    },
    {
      "anonymous": false,
      "inputs": [
        {
          "indexed": true,
          "internalType": "uint256",
          "name": "groupId",
          "type": "uint256"
        },
        {
          "indexed": false,
          "internalType": "uint256",
          "name": "identityCommitment",
          "type": "uint256"
        },
        {
          "indexed": false,
          "internalType": "uint256",
          "name": "root",
          "type": "uint256"
        }
      ],
      "name": "MemberRemoved",
      "type": "event"
    },
    {
      "anonymous": false,
      "inputs": [
        {
          "indexed": false,
          "internalType": "uint256",
          "name": "sessionId",
          "type": "uint256"
        },
        {
          "indexed": false,
          "internalType": "uint256",
          "name": "questionId",
          "type": "uint256"
        },
        {
          "indexed": false,
          "internalType": "bytes32",
          "name": "signal",
          "type": "bytes32"
        }
      ],
      "name": "NewQuestion",
      "type": "event"
    },
    {
      "anonymous": false,
      "inputs": [
        {
          "indexed": false,
          "internalType": "uint256",
          "name": "nullifierHash",
          "type": "uint256"
        }
      ],
      "name": "NullifierHashAdded",
      "type": "event"
    },
    {
      "anonymous": false,
      "inputs": [
        {
          "indexed": true,
          "internalType": "address",
          "name": "previousOwner",
          "type": "address"
        },
        {
          "indexed": true,
          "internalType": "address",
          "name": "newOwner",
          "type": "address"
        }
      ],
      "name": "OwnershipTransferred",
      "type": "event"
    },
    {
      "anonymous": false,
      "inputs": [
        {
          "indexed": false,
          "internalType": "uint256",
          "name": "sessionId",
          "type": "uint256"
        },
        {
          "indexed": false,
          "internalType": "uint256",
          "name": "questionId",
          "type": "uint256"
        },
        {
          "indexed": false,
          "internalType": "uint256",
          "name": "votes",
          "type": "uint256"
        }
      ],
      "name": "QuestionVoted",
      "type": "event"
    },
    {
      "anonymous": false,
      "inputs": [
        {
          "indexed": true,
          "internalType": "uint256",
          "name": "sessionId",
          "type": "uint256"
        },
        {
          "indexed": false,
          "internalType": "uint256",
          "name": "identityCommitment",
          "type": "uint256"
        }
      ],
      "name": "UserJoinedAmaSession",
      "type": "event"
    },
    {
      "anonymous": false,
      "inputs": [
        {
          "indexed": true,
          "internalType": "uint256",
          "name": "sessionId",
          "type": "uint256"
        },
        {
          "indexed": false,
          "internalType": "uint256",
          "name": "identityCommitment",
          "type": "uint256"
        }
      ],
      "name": "UserLeftAmaSession",
      "type": "event"
    },
    {
      "inputs": [
        {
          "internalType": "uint256",
          "name": "",
          "type": "uint256"
        },
        {
          "internalType": "uint256",
          "name": "",
          "type": "uint256"
        }
      ],
      "name": "amaSessionIdentityCommitments",
      "outputs": [
        {
          "internalType": "uint256",
          "name": "",
          "type": "uint256"
        }
      ],
      "stateMutability": "view",
      "type": "function"
    },
    {
      "inputs": [
        {
          "internalType": "bytes32",
          "name": "",
          "type": "bytes32"
        }
      ],
      "name": "amaSessionQuestion",
      "outputs": [
        {
          "internalType": "uint256",
          "name": "questionId",
          "type": "uint256"
        },
        {
          "internalType": "uint256",
          "name": "votes",
          "type": "uint256"
        }
      ],
      "stateMutability": "view",
      "type": "function"
    },
    {
      "inputs": [
        {
          "internalType": "uint256",
          "name": "",
          "type": "uint256"
        }
      ],
      "name": "amaSessions",
      "outputs": [
        {
          "internalType": "uint256",
          "name": "sessionId",
          "type": "uint256"
        },
        {
          "internalType": "address",
          "name": "owner",
          "type": "address"
        },
        {
          "internalType": "uint256",
          "name": "state",
          "type": "uint256"
        }
      ],
      "stateMutability": "view",
      "type": "function"
    },
    {
      "inputs": [
        {
          "internalType": "uint256",
          "name": "sessionId",
          "type": "uint256"
        }
      ],
      "name": "createAmaSession",
      "outputs": [],
      "stateMutability": "nonpayable",
      "type": "function"
    },
    {
      "inputs": [
        {
          "internalType": "uint256",
          "name": "sessionId",
          "type": "uint256"
        }
      ],
      "name": "endAmaSession",
      "outputs": [],
      "stateMutability": "nonpayable",
      "type": "function"
    },
    {
      "inputs": [
        {
          "internalType": "uint256",
          "name": "groupId",
          "type": "uint256"
        }
      ],
      "name": "getDepth",
      "outputs": [
        {
          "internalType": "uint8",
          "name": "",
          "type": "uint8"
        }
      ],
      "stateMutability": "view",
      "type": "function"
    },
    {
      "inputs": [
        {
          "internalType": "uint256",
          "name": "sessionId",
          "type": "uint256"
        }
      ],
      "name": "getIdentityCommitments",
      "outputs": [
        {
          "internalType": "uint256[]",
          "name": "",
          "type": "uint256[]"
        }
      ],
      "stateMutability": "view",
      "type": "function"
    },
    {
      "inputs": [
        {
          "internalType": "uint256",
          "name": "groupId",
          "type": "uint256"
        }
      ],
      "name": "getNumberOfLeaves",
      "outputs": [
        {
          "internalType": "uint256",
          "name": "",
          "type": "uint256"
        }
      ],
      "stateMutability": "view",
      "type": "function"
    },
    {
      "inputs": [
        {
          "internalType": "uint256",
          "name": "groupId",
          "type": "uint256"
        }
      ],
      "name": "getRoot",
      "outputs": [
        {
          "internalType": "uint256",
          "name": "",
          "type": "uint256"
        }
      ],
      "stateMutability": "view",
      "type": "function"
    },
    {
      "inputs": [
        {
          "internalType": "uint256",
          "name": "sessionId",
          "type": "uint256"
        },
        {
          "internalType": "uint256",
          "name": "identityCommitment",
          "type": "uint256"
        }
      ],
      "name": "joinAmaSession",
      "outputs": [],
      "stateMutability": "nonpayable",
      "type": "function"
    },
    {
      "inputs": [],
      "name": "owner",
      "outputs": [
        {
          "internalType": "address",
          "name": "",
          "type": "address"
        }
      ],
      "stateMutability": "view",
      "type": "function"
    },
    {
      "inputs": [
        {
          "internalType": "uint256",
          "name": "sessionId",
          "type": "uint256"
        }
      ],
      "name": "pauseAmaSession",
      "outputs": [],
      "stateMutability": "nonpayable",
      "type": "function"
    },
    {
      "inputs": [
        {
          "internalType": "uint256",
          "name": "sessionId",
          "type": "uint256"
        },
        {
          "internalType": "uint256",
          "name": "questionId",
          "type": "uint256"
        },
        {
          "internalType": "bytes32",
          "name": "signal",
          "type": "bytes32"
        },
        {
          "internalType": "uint256",
          "name": "root",
          "type": "uint256"
        },
        {
          "internalType": "uint256",
          "name": "nullifierHash",
          "type": "uint256"
        },
        {
          "internalType": "uint256",
          "name": "externalNullifier",
          "type": "uint256"
        },
        {
          "internalType": "uint256[8]",
          "name": "proof",
          "type": "uint256[8]"
        }
      ],
      "name": "postQuestion",
      "outputs": [],
      "stateMutability": "nonpayable",
      "type": "function"
    },
    {
      "inputs": [],
      "name": "renounceOwnership",
      "outputs": [],
      "stateMutability": "nonpayable",
      "type": "function"
    },
    {
      "inputs": [
        {
          "internalType": "uint256",
          "name": "sessionId",
          "type": "uint256"
        }
      ],
      "name": "resumeAmaSession",
      "outputs": [],
      "stateMutability": "nonpayable",
      "type": "function"
    },
    {
      "inputs": [
        {
          "internalType": "uint256",
          "name": "sessionId",
          "type": "uint256"
        }
      ],
      "name": "startAmaSession",
      "outputs": [],
      "stateMutability": "nonpayable",
      "type": "function"
    },
    {
      "inputs": [
        {
          "internalType": "address",
          "name": "newOwner",
          "type": "address"
        }
      ],
      "name": "transferOwnership",
      "outputs": [],
      "stateMutability": "nonpayable",
      "type": "function"
    },
    {
      "inputs": [],
      "name": "verifier",
      "outputs": [
        {
          "internalType": "contract IVerifier",
          "name": "",
          "type": "address"
        }
      ],
      "stateMutability": "view",
      "type": "function"
    },
    {
      "inputs": [
        {
          "internalType": "uint256",
          "name": "sessionId",
          "type": "uint256"
        },
        {
          "internalType": "uint256",
          "name": "questionId",
          "type": "uint256"
        },
        {
          "internalType": "bytes32",
          "name": "signal",
          "type": "bytes32"
        },
        {
          "internalType": "uint256",
          "name": "root",
          "type": "uint256"
        },
        {
          "internalType": "uint256",
          "name": "nullifierHash",
          "type": "uint256"
        },
        {
          "internalType": "uint256",
          "name": "externalNullifier",
          "type": "uint256"
        },
        {
          "internalType": "uint256[8]",
          "name": "proof",
          "type": "uint256[8]"
        }
      ],
      "name": "voteQuestion",
      "outputs": [
        {
          "internalType": "uint256",
          "name": "",
          "type": "uint256"
        },
        {
          "internalType": "uint256",
          "name": "",
          "type": "uint256"
        }
      ],
      "stateMutability": "nonpayable",
      "type": "function"
    }
  ],
  "bytecode": "0x60806040523480156200001157600080fd5b5060405162002f7238038062002f72833981810160405281019062000037919062000184565b620000576200004b6200009f60201b60201c565b620000a760201b60201c565b80600660006101000a81548173ffffffffffffffffffffffffffffffffffffffff021916908373ffffffffffffffffffffffffffffffffffffffff16021790555050620001fe565b600033905090565b6000600260009054906101000a900473ffffffffffffffffffffffffffffffffffffffff16905081600260006101000a81548173ffffffffffffffffffffffffffffffffffffffff021916908373ffffffffffffffffffffffffffffffffffffffff1602179055508173ffffffffffffffffffffffffffffffffffffffff168173ffffffffffffffffffffffffffffffffffffffff167f8be0079c531659141344cd1fd0a4f28419497f9722a3daafe3b4186f6b6457e060405160405180910390a35050565b6000815190506200017e81620001e4565b92915050565b6000602082840312156200019757600080fd5b6000620001a7848285016200016d565b91505092915050565b6000620001bd82620001c4565b9050919050565b600073ffffffffffffffffffffffffffffffffffffffff82169050919050565b620001ef81620001b0565b8114620001fb57600080fd5b50565b612d64806200020e6000396000f3fe608060405234801561001057600080fd5b50600436106101215760003560e01c806375e618c9116100ad578063bb4446af11610071578063bb4446af14610319578063bc466a091461034b578063e2a1e28514610367578063f2fde38b14610383578063f6bb73541461039f57610121565b806375e618c91461024f5780638da5cb5b1461027f5780639b24b3b01461029d578063ad98ac80146102cd578063b9c78c2b146102e957610121565b8063542a4b96116100f4578063542a4b96146101c157806369f819df146101dd5780636f38db4f1461020d578063715018a614610229578063758dd1951461023357610121565b806308cc30d8146101265780630950371f146101575780631582fab1146101875780632b7ac3f3146101a3575b600080fd5b610140600480360381019061013b9190611e4a565b6103d0565b60405161014e92919061266e565b60405180910390f35b610171600480360381019061016c9190611de5565b610620565b60405161017e91906123df565b60405180910390f35b6101a1600480360381019061019c9190611de5565b61068b565b005b6101ab610831565b6040516101b89190612401565b60405180910390f35b6101db60048036038101906101d69190611e0e565b610857565b005b6101f760048036038101906101f29190611e0e565b6109fa565b604051610204919061261c565b60405180910390f35b61022760048036038101906102229190611de5565b610a2b565b005b610231610c2b565b005b61024d60048036038101906102489190611de5565b610cb3565b005b61026960048036038101906102649190611de5565b610eb3565b6040516102769190612705565b60405180910390f35b610287610ee0565b604051610294919061237d565b60405180910390f35b6102b760048036038101906102b29190611de5565b610f0a565b6040516102c4919061261c565b60405180910390f35b6102e760048036038101906102e29190611de5565b610f2a565b005b61030360048036038101906102fe9190611de5565b61112a565b604051610310919061261c565b60405180910390f35b610333600480360381019061032e9190611de5565b61114a565b60405161034293929190612637565b60405180910390f35b61036560048036038101906103609190611de5565b611194565b005b610381600480360381019061037c9190611e4a565b611274565b005b61039d60048036038101906103989190611d6a565b6114a4565b005b6103b960048036038101906103b49190611dbc565b61159c565b6040516103c792919061266e565b60405180910390f35b60008088600073ffffffffffffffffffffffffffffffffffffffff166003600083815260200190815260200160002060010160009054906101000a900473ffffffffffffffffffffffffffffffffffffffff1673ffffffffffffffffffffffffffffffffffffffff16141561047a576040517f08c379a00000000000000000000000000000000000000000000000000000000081526004016104719061253c565b60405180910390fd5b89600380600083815260200190815260200160002060020154146104d3576040517f08c379a00000000000000000000000000000000000000000000000000000000081526004016104ca9061247c565b60405180910390fd5b6105038989898989600660009054906101000a900473ffffffffffffffffffffffffffffffffffffffff166115c0565b610542576040517f08c379a00000000000000000000000000000000000000000000000000000000081526004016105399061249c565b60405180910390fd5b60008a6040516020016105559190612362565b60405160208183030381529060405280519060200120905060016004600083815260200190815260200160002060010160008282546105949190612825565b925050819055506105a48861193f565b7fe032b0171b8688390474f14cb113a546cf69cd6385ba4a5ae43550afe994e0cc8c8c60046000858152602001908152602001600020600101546040516105ed939291906126ce565b60405180910390a18a60046000838152602001908152602001600020600101549450945050505097509795505050505050565b60606005600083815260200190815260200160002080548060200260200160405190810160405280929190818152602001828054801561067f57602002820191906000526020600020905b81548152602001906001019080831161066b575b50505050509050919050565b80600073ffffffffffffffffffffffffffffffffffffffff166003600083815260200190815260200160002060010160009054906101000a900473ffffffffffffffffffffffffffffffffffffffff1673ffffffffffffffffffffffffffffffffffffffff161415610732576040517f08c379a00000000000000000000000000000000000000000000000000000000081526004016107299061253c565b60405180910390fd5b813373ffffffffffffffffffffffffffffffffffffffff166003600083815260200190815260200160002060010160009054906101000a900473ffffffffffffffffffffffffffffffffffffffff1673ffffffffffffffffffffffffffffffffffffffff16146107d7576040517f08c379a00000000000000000000000000000000000000000000000000000000081526004016107ce9061255c565b60405180910390fd5b600460036000858152602001908152602001600020600201819055507e933d644a694d122358be17a9d7642ba5dfaae41af75919aab4d6e727915afa83600460405161082492919061266e565b60405180910390a1505050565b600660009054906101000a900473ffffffffffffffffffffffffffffffffffffffff1681565b81600073ffffffffffffffffffffffffffffffffffffffff166003600083815260200190815260200160002060010160009054906101000a900473ffffffffffffffffffffffffffffffffffffffff1673ffffffffffffffffffffffffffffffffffffffff1614156108fe576040517f08c379a00000000000000000000000000000000000000000000000000000000081526004016108f59061253c565b60405180910390fd5b826002600360008381526020019081526020016000206002015414806109395750600380600083815260200190815260200160002060020154145b610978576040517f08c379a000000000000000000000000000000000000000000000000000000000815260040161096f906124bc565b60405180910390fd5b610982848461196d565b60056000858152602001908152602001600020839080600181540180825580915050600190039060005260206000200160009091909190915055837f2855066e76771b6dced90a7b0015d1bd9a51283bfa652fbaf44214c1d545f8d0846040516109ec919061261c565b60405180910390a250505050565b60056020528160005260406000208181548110610a1657600080fd5b90600052602060002001600091509150505481565b80600073ffffffffffffffffffffffffffffffffffffffff166003600083815260200190815260200160002060010160009054906101000a900473ffffffffffffffffffffffffffffffffffffffff1673ffffffffffffffffffffffffffffffffffffffff161415610ad2576040517f08c379a0000000000000000000000000000000000000000000000000000000008152600401610ac99061253c565b60405180910390fd5b813373ffffffffffffffffffffffffffffffffffffffff166003600083815260200190815260200160002060010160009054906101000a900473ffffffffffffffffffffffffffffffffffffffff1673ffffffffffffffffffffffffffffffffffffffff1614610b77576040517f08c379a0000000000000000000000000000000000000000000000000000000008152600401610b6e9061255c565b60405180910390fd5b826001600360008381526020019081526020016000206002015414610bd1576040517f08c379a0000000000000000000000000000000000000000000000000000000008152600401610bc8906124dc565b60405180910390fd5b6003806000868152602001908152602001600020600201819055507e933d644a694d122358be17a9d7642ba5dfaae41af75919aab4d6e727915afa846003604051610c1d92919061266e565b60405180910390a150505050565b610c33611a85565b73ffffffffffffffffffffffffffffffffffffffff16610c51610ee0565b73ffffffffffffffffffffffffffffffffffffffff1614610ca7576040517f08c379a0000000000000000000000000000000000000000000000000000000008152600401610c9e9061251c565b60405180910390fd5b610cb16000611a8d565b565b80600073ffffffffffffffffffffffffffffffffffffffff166003600083815260200190815260200160002060010160009054906101000a900473ffffffffffffffffffffffffffffffffffffffff1673ffffffffffffffffffffffffffffffffffffffff161415610d5a576040517f08c379a0000000000000000000000000000000000000000000000000000000008152600401610d519061253c565b60405180910390fd5b813373ffffffffffffffffffffffffffffffffffffffff166003600083815260200190815260200160002060010160009054906101000a900473ffffffffffffffffffffffffffffffffffffffff1673ffffffffffffffffffffffffffffffffffffffff1614610dff576040517f08c379a0000000000000000000000000000000000000000000000000000000008152600401610df69061255c565b60405180910390fd5b826002600360008381526020019081526020016000206002015414610e59576040517f08c379a0000000000000000000000000000000000000000000000000000000008152600401610e509061257c565b60405180910390fd5b6003806000868152602001908152602001600020600201819055507e933d644a694d122358be17a9d7642ba5dfaae41af75919aab4d6e727915afa846003604051610ea592919061266e565b60405180910390a150505050565b60006001600083815260200190815260200160002060000160009054906101000a900460ff169050919050565b6000600260009054906101000a900473ffffffffffffffffffffffffffffffffffffffff16905090565b600060016000838152602001908152602001600020600101549050919050565b80600073ffffffffffffffffffffffffffffffffffffffff166003600083815260200190815260200160002060010160009054906101000a900473ffffffffffffffffffffffffffffffffffffffff1673ffffffffffffffffffffffffffffffffffffffff161415610fd1576040517f08c379a0000000000000000000000000000000000000000000000000000000008152600401610fc89061253c565b60405180910390fd5b813373ffffffffffffffffffffffffffffffffffffffff166003600083815260200190815260200160002060010160009054906101000a900473ffffffffffffffffffffffffffffffffffffffff1673ffffffffffffffffffffffffffffffffffffffff1614611076576040517f08c379a000000000000000000000000000000000000000000000000000000000815260040161106d9061255c565b60405180910390fd5b82600380600083815260200190815260200160002060020154146110cf576040517f08c379a00000000000000000000000000000000000000000000000000000000081526004016110c69061247c565b60405180910390fd5b600260036000868152602001908152602001600020600201819055507e933d644a694d122358be17a9d7642ba5dfaae41af75919aab4d6e727915afa84600260405161111c92919061266e565b60405180910390a150505050565b600060016000838152602001908152602001600020600201549050919050565b60036020528060005260406000206000915090508060000154908060010160009054906101000a900473ffffffffffffffffffffffffffffffffffffffff16908060020154905083565b6111a18160146000611b53565b60405180606001604052808281526020013373ffffffffffffffffffffffffffffffffffffffff1681526020016001815250600360008381526020019081526020016000206000820151816000015560208201518160010160006101000a81548173ffffffffffffffffffffffffffffffffffffffff021916908373ffffffffffffffffffffffffffffffffffffffff16021790555060408201518160020155905050807f80eb16b9e18c05f6c250357758c0f8972e8b34d8f739057ce9d1ba145560ac0c60405160405180910390a250565b86600073ffffffffffffffffffffffffffffffffffffffff166003600083815260200190815260200160002060010160009054906101000a900473ffffffffffffffffffffffffffffffffffffffff1673ffffffffffffffffffffffffffffffffffffffff16141561131b576040517f08c379a00000000000000000000000000000000000000000000000000000000081526004016113129061253c565b60405180910390fd5b8760038060008381526020019081526020016000206002015414611374576040517f08c379a000000000000000000000000000000000000000000000000000000000815260040161136b9061247c565b60405180910390fd5b6113a48787878787600660009054906101000a900473ffffffffffffffffffffffffffffffffffffffff166115c0565b6113e3576040517f08c379a00000000000000000000000000000000000000000000000000000000081526004016113da9061249c565b60405180910390fd5b6000886040516020016113f69190612362565b604051602081830303815290604052805190602001209050600060405180604001604052808b8152602001600081525090508060046000848152602001908152602001600020600082015181600001556020820151816001015590505061145c8761193f565b7f37e674dde5bcccda4110ec8abe4daaf45c9c378d8185aec68673556e042e1e9f8b8b8b60405161148f93929190612697565b60405180910390a15050505050505050505050565b6114ac611a85565b73ffffffffffffffffffffffffffffffffffffffff166114ca610ee0565b73ffffffffffffffffffffffffffffffffffffffff1614611520576040517f08c379a00000000000000000000000000000000000000000000000000000000081526004016115179061251c565b60405180910390fd5b600073ffffffffffffffffffffffffffffffffffffffff168173ffffffffffffffffffffffffffffffffffffffff161415611590576040517f08c379a00000000000000000000000000000000000000000000000000000000081526004016115879061243c565b60405180910390fd5b61159981611a8d565b50565b60046020528060005260406000206000915090508060000154908060010154905082565b600080600086815260200190815260200160002060009054906101000a900460ff1615611622576040517f08c379a00000000000000000000000000000000000000000000000000000000081526004016116199061241c565b60405180910390fd5b600061162d88611cc1565b90508273ffffffffffffffffffffffffffffffffffffffff16635fe8c13b604051806040016040528087600060088110611690577f4e487b7100000000000000000000000000000000000000000000000000000000600052603260045260246000fd5b60200201358152602001876001600881106116d4577f4e487b7100000000000000000000000000000000000000000000000000000000600052603260045260246000fd5b6020020135815250604051806040016040528060405180604001604052808a60026008811061172c577f4e487b7100000000000000000000000000000000000000000000000000000000600052603260045260246000fd5b602002013581526020018a600360088110611770577f4e487b7100000000000000000000000000000000000000000000000000000000600052603260045260246000fd5b6020020135815250815260200160405180604001604052808a6004600881106117c2577f4e487b7100000000000000000000000000000000000000000000000000000000600052603260045260246000fd5b602002013581526020018a600560088110611806577f4e487b7100000000000000000000000000000000000000000000000000000000600052603260045260246000fd5b6020020135815250815250604051806040016040528089600660088110611856577f4e487b7100000000000000000000000000000000000000000000000000000000600052603260045260246000fd5b602002013581526020018960076008811061189a577f4e487b7100000000000000000000000000000000000000000000000000000000600052603260045260246000fd5b602002013581525060405180608001604052808d81526020018c81526020018781526020018b8152506040518563ffffffff1660e01b81526004016118e29493929190612398565b60206040518083038186803b1580156118fa57600080fd5b505afa15801561190e573d6000803e3d6000fd5b505050506040513d601f19601f820116820180604052508101906119329190611d93565b9150509695505050505050565b600160008083815260200190815260200160002060006101000a81548160ff02191690831515021790555050565b600061197883610eb3565b60ff1614156119bc576040517f08c379a00000000000000000000000000000000000000000000000000000000081526004016119b3906124fc565b60405180910390fd5b6001600083815260200190815260200160002073__$4c0484323457fe1a856f46a4759b553fe4$__63168703fa9091836040518363ffffffff1660e01b8152600401611a099291906125bc565b60006040518083038186803b158015611a2157600080fd5b505af4158015611a35573d6000803e3d6000fd5b505050506000611a4483610f0a565b9050827f03fd27265b7dd1f55558bedc22a58fa3b10afb1be776e614bd5a7ba7b94994068383604051611a7892919061266e565b60405180910390a2505050565b600033905090565b6000600260009054906101000a900473ffffffffffffffffffffffffffffffffffffffff16905081600260006101000a81548173ffffffffffffffffffffffffffffffffffffffff021916908373ffffffffffffffffffffffffffffffffffffffff1602179055508173ffffffffffffffffffffffffffffffffffffffff168173ffffffffffffffffffffffffffffffffffffffff167f8be0079c531659141344cd1fd0a4f28419497f9722a3daafe3b4186f6b6457e060405160405180910390a35050565b7f30644e72e131a029b85045b68181585d2833e84879b9709143e1f593f00000018310611bb5576040517f08c379a0000000000000000000000000000000000000000000000000000000008152600401611bac9061259c565b60405180910390fd5b6000611bc084610eb3565b60ff1614611c03576040517f08c379a0000000000000000000000000000000000000000000000000000000008152600401611bfa9061245c565b60405180910390fd5b6001600084815260200190815260200160002073__$4c0484323457fe1a856f46a4759b553fe4$__63b4bdd117909184846040518463ffffffff1660e01b8152600401611c52939291906125e5565b60006040518083038186803b158015611c6a57600080fd5b505af4158015611c7e573d6000803e3d6000fd5b50505050827fc3082aa494e9088c2c9f0fb62a0b6bd46e6699acb94cfba35be29b95a93f68c88383604051611cb4929190612720565b60405180910390a2505050565b6000600882604051602001611cd69190612347565b6040516020818303038152906040528051906020012060001c901c9050919050565b600081359050611d0781612cd2565b92915050565b600081905082602060080282011115611d2557600080fd5b92915050565b600081519050611d3a81612ce9565b92915050565b600081359050611d4f81612d00565b92915050565b600081359050611d6481612d17565b92915050565b600060208284031215611d7c57600080fd5b6000611d8a84828501611cf8565b91505092915050565b600060208284031215611da557600080fd5b6000611db384828501611d2b565b91505092915050565b600060208284031215611dce57600080fd5b6000611ddc84828501611d40565b91505092915050565b600060208284031215611df757600080fd5b6000611e0584828501611d55565b91505092915050565b60008060408385031215611e2157600080fd5b6000611e2f85828601611d55565b9250506020611e4085828601611d55565b9150509250929050565b60008060008060008060006101c0888a031215611e6657600080fd5b6000611e748a828b01611d55565b9750506020611e858a828b01611d55565b9650506040611e968a828b01611d40565b9550506060611ea78a828b01611d55565b9450506080611eb88a828b01611d55565b93505060a0611ec98a828b01611d55565b92505060c0611eda8a828b01611d0d565b91505092959891949750929550565b6000611ef58383611f7f565b60408301905092915050565b6000611f0d83836122e5565b60208301905092915050565b611f228161287b565b82525050565b611f3181612777565b611f3b81846127d7565b9250611f4682612749565b8060005b83811015611f77578151611f5e8782611ee9565b9650611f69836127a3565b925050600181019050611f4a565b505050505050565b611f8881612782565b611f9281846127e2565b9250611f9d82612753565b8060005b83811015611fce578151611fb58782611f01565b9650611fc0836127b0565b925050600181019050611fa1565b505050505050565b611fdf81612782565b611fe981846127ed565b9250611ff482612753565b8060005b8381101561202557815161200c8782611f01565b9650612017836127b0565b925050600181019050611ff8565b505050505050565b6120368161278d565b61204081846127f8565b925061204b8261275d565b8060005b8381101561207c5781516120638782611f01565b965061206e836127bd565b92505060018101905061204f565b505050505050565b600061208f82612798565b6120998185612803565b93506120a483612767565b8060005b838110156120d55781516120bc8882611f01565b97506120c7836127ca565b9250506001810190506120a8565b5085935050505092915050565b6120eb81612899565b82525050565b6121026120fd82612899565b6128fe565b82525050565b612111816128da565b82525050565b6000612124603683612814565b915061212f82612941565b604082019050919050565b6000612147602683612814565b915061215282612990565b604082019050919050565b600061216a602583612814565b9150612175826129df565b604082019050919050565b600061218d602183612814565b915061219882612a2e565b604082019050919050565b60006121b0601b83612814565b91506121bb82612a7d565b602082019050919050565b60006121d3602b83612814565b91506121de82612aa6565b604082019050919050565b60006121f6602983612814565b915061220182612af5565b604082019050919050565b6000612219602583612814565b915061222482612b44565b604082019050919050565b600061223c602083612814565b915061224782612b93565b602082019050919050565b600061225f601a83612814565b915061226a82612bbc565b602082019050919050565b6000612282602983612814565b915061228d82612be5565b604082019050919050565b60006122a5602183612814565b91506122b082612c34565b604082019050919050565b60006122c8603683612814565b91506122d382612c83565b604082019050919050565b8082525050565b6122ee816128c3565b82525050565b6122fd816128c3565b82525050565b61230c816128c3565b82525050565b61232361231e826128c3565b612908565b82525050565b612332816128cd565b82525050565b612341816128cd565b82525050565b600061235382846120f1565b60208201915081905092915050565b600061236e8284612312565b60208201915081905092915050565b60006020820190506123926000830184611f19565b92915050565b6000610180820190506123ae6000830187611fd6565b6123bb6040830186611f28565b6123c860c0830185611fd6565b6123d661010083018461202d565b95945050505050565b600060208201905081810360008301526123f98184612084565b905092915050565b60006020820190506124166000830184612108565b92915050565b6000602082019050818103600083015261243581612117565b9050919050565b600060208201905081810360008301526124558161213a565b9050919050565b600060208201905081810360008301526124758161215d565b9050919050565b6000602082019050818103600083015261249581612180565b9050919050565b600060208201905081810360008301526124b5816121a3565b9050919050565b600060208201905081810360008301526124d5816121c6565b9050919050565b600060208201905081810360008301526124f5816121e9565b9050919050565b600060208201905081810360008301526125158161220c565b9050919050565b600060208201905081810360008301526125358161222f565b9050919050565b6000602082019050818103600083015261255581612252565b9050919050565b6000602082019050818103600083015261257581612275565b9050919050565b6000602082019050818103600083015261259581612298565b9050919050565b600060208201905081810360008301526125b5816122bb565b9050919050565b60006040820190506125d160008301856122de565b6125de6020830184612303565b9392505050565b60006060820190506125fa60008301866122de565b6126076020830185612338565b6126146040830184612303565b949350505050565b600060208201905061263160008301846122f4565b92915050565b600060608201905061264c60008301866122f4565b6126596020830185611f19565b61266660408301846122f4565b949350505050565b600060408201905061268360008301856122f4565b61269060208301846122f4565b9392505050565b60006060820190506126ac60008301866122f4565b6126b960208301856122f4565b6126c660408301846120e2565b949350505050565b60006060820190506126e360008301866122f4565b6126f060208301856122f4565b6126fd60408301846122f4565b949350505050565b600060208201905061271a6000830184612329565b92915050565b60006040820190506127356000830185612329565b61274260208301846122f4565b9392505050565b6000819050919050565b6000819050919050565b6000819050919050565b6000819050602082019050919050565b600060029050919050565b600060029050919050565b600060049050919050565b600081519050919050565b6000602082019050919050565b6000602082019050919050565b6000602082019050919050565b6000602082019050919050565b600081905092915050565b600081905092915050565b600081905092915050565b600081905092915050565b600082825260208201905092915050565b600082825260208201905092915050565b6000612830826128c3565b915061283b836128c3565b9250827fffffffffffffffffffffffffffffffffffffffffffffffffffffffffffffffff038211156128705761286f612912565b5b828201905092915050565b6000612886826128a3565b9050919050565b60008115159050919050565b6000819050919050565b600073ffffffffffffffffffffffffffffffffffffffff82169050919050565b6000819050919050565b600060ff82169050919050565b60006128e5826128ec565b9050919050565b60006128f7826128a3565b9050919050565b6000819050919050565b6000819050919050565b7f4e487b7100000000000000000000000000000000000000000000000000000000600052601160045260246000fd5b7f53656d6170686f7265436f72653a20796f752063616e6e6f742075736520746860008201527f652073616d65206e756c6c696669657220747769636500000000000000000000602082015250565b7f4f776e61626c653a206e6577206f776e657220697320746865207a65726f206160008201527f6464726573730000000000000000000000000000000000000000000000000000602082015250565b7f53656d6170686f726547726f7570733a2067726f757020616c7265616479206560008201527f7869737473000000000000000000000000000000000000000000000000000000602082015250565b7f414d412073657373696f6e2773207374617465206973206e6f7420416374697660008201527f6500000000000000000000000000000000000000000000000000000000000000602082015250565b7f414d413a207468652070726f6f66206973206e6f742076616c69640000000000600082015250565b7f414d412073657373696f6e2773207374617465206973206e6f7420506175736560008201527f64206f7220416374697665000000000000000000000000000000000000000000602082015250565b7f414d412073657373696f6e27732073746174652073686f756c64206265204e6f60008201527f7420537461727465640000000000000000000000000000000000000000000000602082015250565b7f53656d6170686f726547726f7570733a2067726f757020646f6573206e6f742060008201527f6578697374000000000000000000000000000000000000000000000000000000602082015250565b7f4f776e61626c653a2063616c6c6572206973206e6f7420746865206f776e6572600082015250565b7f414d412073657373696f6e20646f6573206e6f74206578697374000000000000600082015250565b7f596f7520617265206e6f7420746865206f776e6572206f66207468697320414d60008201527f412073657373696f6e0000000000000000000000000000000000000000000000602082015250565b7f414d412073657373696f6e2773207374617465206973206e6f7420506175736560008201527f6400000000000000000000000000000000000000000000000000000000000000602082015250565b7f53656d6170686f726547726f7570733a2067726f7570206964206d757374206260008201527f65203c20534e41524b5f5343414c41525f4649454c4400000000000000000000602082015250565b612cdb8161287b565b8114612ce657600080fd5b50565b612cf28161288d565b8114612cfd57600080fd5b50565b612d0981612899565b8114612d1457600080fd5b50565b612d20816128c3565b8114612d2b57600080fd5b5056fea26469706673582212202c0ca195d6b8222174d2d140d9407c3257ed1bdcf4e2c61a2caccec9f6bdecd864736f6c63430008040033",
  "linkReferences": {
    "@zk-kit/incremental-merkle-tree.sol/contracts/IncrementalBinaryTree.sol": {
      "IncrementalBinaryTree": [
        {
          "length": 20,
          "start": 7135
        },
        {
          "length": 20,
          "start": 7718
        }
      ]
    }
  },
  "deployedLinkReferences": {
    "@zk-kit/incremental-merkle-tree.sol/contracts/IncrementalBinaryTree.sol": {
      "IncrementalBinaryTree": [
        {
          "length": 20,
          "start": 6609
        },
        {
          "length": 20,
          "start": 7192
        }
      ]
    }
  }
}